:020000040800F2
:100000006004002001010008431B0008E7190008F4
:10001000411B0008C5070008091E00080000000079
:100020000000000000000000000000005B1D000850
:10003000C707000800000000451B00085D1D000800
:100040001B0100081B0100081B0100081B01000820
:100050001B0100081B0100081B0100081B01000810
:100060001B0100081B0100081B0100081B01000800
:100070001B0100081B0100081B0100081B010008F0
:100080001B0100081B0100081B0100081B010008E0
:100090001B0100081B0100081B0100081B010008D0
:1000A0001B0100081B0100081B0100081B010008C0
:1000B0001B0100081B010008000000001B010008D4
:1000C0001B01000800000000000000001B010008E8
:1000D000000000001B0100081B01000800000000D8
:1000E0001B0100081B0100081B010008DFF80CD0F1
:1000F00000F0F8FA004800470929000860040020D1
:100100000648804706480047FEE7FEE7FEE7FEE7B1
:10011000FEE7FEE7FEE7FEE7FEE7FEE7C11D00089B
:10012000ED000008202A04DB203A21FA02F0002129
:10013000704721FA02F3D040C2F1200291400843F7
:100140001946704740EA01039B0703D009E008C93C
:10015000121F08C0042AFAD203E011F8013B00F88C
:10016000013B521EF9D27047D2B201E000F8012BD8
:10017000491EFBD270470022F6E710B513460A4627
:1001800004461946FFF7F0FF204610BD421C10F848
:10019000011B0029FBD1801A7047F0B480EA0102EC
:1001A000D40F4200B2EB410F02D20246084611467C
:1001B0004A0042D0C30DDDB2C1F3C752AD1A202DA3
:1001C00035DAC1F3160141F4000204B15242C5F11F
:1001D000200602FA06F12A411044B3EBD05F23D087
:1001E000C4B1012DA0EBC35009DCF0BC4FF00042BC
:1001F00002EAC352DBB200F5000000F0E7B94000AC
:1002000000F1807000EBC350A0F1807040EAD17023
:10021000490009E0490841EAC071A0EBC35000F56C
:100220000000400800EBC350F0BC00F0C6B96142CA
:10023000012202EB4101001BF6E7F0BC704781F0A0
:100240000041AAE780F00040A7E7420005D0C0F3D4
:10025000C7525242914201DC0020704700EBC1506E
:1002600070472DE9FE4F804681EA0300C00F0C461F
:10027000009021F0004123F00045B8EB0200A941B5
:1002800005D24046214690461C460B46024623F0C6
:100290000040104347D0270DC7F30A00C3F30A51AB
:1002A0000290401A019040286BDAC3F3130040F427
:1002B000801B0098924620B10023D2EB030A63EB27
:1002C0000B0B01985946C0F14002504600F054F91A
:1002D00006460D4650465946019A00F05CF910EB6F
:1002E00008006141002487EA115284EAE7731A4347
:1002F00040D0009A62B3019A012A4FEA075215DCF6
:10030000001B61EB02014FF0004202EA0752CDE907
:100310000042001C41F5801132462B4600F093F953
:1003200003B0BDE8F08F40462146F9E7001B61EBC2
:100330000201001C41F5801300185B412018A2F552
:10034000001747EB030140EAD570B6196D4111E083
:100350006D084FEA360645EAC0754FEA0752001BA2
:1003600061EB0201001C41F5801149084FEA3000A1
:100370000019514132462B4603B0BDE8F04F00F062
:1003800053B90098012240000023D0EB020263EB36
:10039000E073009821464FEAE074B8EB000061EB8F
:1003A0000401E9E783F000435BE781F0004158E78F
:1003B0002DE9FE4F81EA030404F0004421F00041DE
:1003C00000944FF0000B23F0004350EA01045ED08C
:1003D00052EA03045BD0C3F30A54C1F30A552C4418
:1003E000A4F2F3340194A0FB0254C1F3130141F4CD
:1003F0008011C3F3130343F4801301FB024400FB99
:10040000034E840A970A44EA815447EA8357A4FBBF
:10041000076802958D0A05FB07854FEA932C04FBBC
:100420000C542705029D4FEA065847EA1637B5EBEC
:1004300008056EEB070C870E920E47EA811742EA19
:100440008312A7FB0201B6EB0B0164EB00042B0D3A
:1004500043EA0C335E1844EB1C50DA465146E7FB86
:100460000201C5F313044FEA0B3343EA14534FEA76
:100470000432019C43EA0603A4F10C040294009C9C
:10048000CDE900B400F0DFF803B0BDE8F08F002044
:100490000146F9E7C10F80EAE0700844CA079623D5
:1004A000002100F093B80EB5C10F80EAE070084457
:1004B000CA07002140F233438DE80E000A460B467E
:1004C00000F0C1F803B000BD0EB540F23341029117
:1004D0000021CDE900110A460B4600F0B4F803B044
:1004E00000BD00F0004220F00040C10DC0F3160036
:1004F00040F400007F2901DA00207047962903DCD0
:10050000C1F19601C84001E096398840002AF4D034
:100510004042704701F0004330B421F0004150EAFE
:10052000010206D00A0DA2F56072C1F31301002A80
:1005300002DC30BC00207047440F44EAC104C10013
:10054000E01830BC00EBC25000F037B830B50B46B5
:10055000014600202022012409E021FA02F59D42F3
:1005600005D303FA02F5491B04FA02F52844151EC7
:10057000A2F10102F1DC30BD202A04DB203A00FAAE
:1005800002F1002070479140C2F1200320FA03F3EA
:10059000194390407047202A06DBCB17203A41FAD6
:1005A00002F043EAE07306E041FA02F3D040C2F100
:1005B000200291400843194670470029A8BF7047A0
:1005C000401C490008BF20F00100704710B4B0FA89
:1005D00080FC00FA0CF050EA010404BF10BC704724
:1005E00049B1CCF1200421FA04F411FA0CF118BF3E
:1005F000012121430843A3EB0C01CB1D4FEA00610D
:100600004FEA102042BF002010BC704700EBC350DF
:1006100010440029A4BF10BC7047401C490008BF0B
:1006200020F0010010BC704710B5141E73F10004D7
:1006300008DA401C41F1000192185B411A4301D1D4
:1006400020F0010010BD2DE9F04D92469B4611B1FE
:10065000B1FA81F202E0B0FA80F220329046FFF760
:100660008BFF04460F4640EA0A0041EA0B0153465D
:100670005A46084313D0114653EA010019D0C8F175
:1006800040025046FFF74EFD05460E46504659467D
:100690004246FFF771FF084305D0012004E02046E1
:1006A0003946BDE8F08D0020054346EAE0762C434C
:1006B00037430A986305E40AA0EB08000022FD0A0C
:1006C00044EA47540A3002D500200146E9E7010513
:1006D00010196941DDE9084500196941BDE8F04D8F
:1006E000A2E70000064C074D06E0E06840F0010379
:1006F00094E8070098471034AC42F6D3FFF7FAFCB1
:100700005C2D00087C2D000870B5044600688168E7
:10071000C943C9071CD1816821F00101816000F043
:100720009FFB05460FE000BF00F09AFB401B02282C
:1007300009D9A06A40F01000A062E06A40F0010010
:10074000E062012070BD20688068C043C007EBD024
:10075000002070BDF8B50026044600960068816848
:10076000C943C90728D0816841F00101816013485D
:1007700013490068B0FBF1F000E0401E0090002833
:10078000FBD100F06DFB054611E000BF00F068FBF7
:10079000401B02280BD9A06A40F01000A062E06A5A
:1007A00040F00100E06284F824600120F8BD206878
:1007B0008068C043C007E9D10020F8BD14000020C4
:1007C00040420F00FEE7704770470000F8B5002474
:1007D000009490F824202546012A12D0012280F8A6
:1007E00024204A681F23072A0DD20668776B521E01
:1007F00002EB820293409F430B6893401F43776351
:1008000019E00220F8BD06680D2A0AD2376BD21F04
:1008100002EB820293409F430B6893401F43376370
:1008200009E0F76A0D3A02EB820293409F430B689E
:1008300093401F43F7620A68072306680A2A0AD30F
:10084000F7680A3A02EB420293409F438B68934059
:100850001F43F76008E0376902EB420293409F4371
:100860008B6893401F4337610A68102A01D0112A10
:1008700020D1124B02689A4217D193681B0219D4F7
:10088000936843F4000393600968102912D10C495E
:100890000C4A0968B1FBF2F101EB8101490000E06B
:1008A000491E00910029FBD104E0816A41F020013A
:1008B0008162012480F824502046F8BD00240140C4
:1008C0001400002040420F000068C06C7047000018
:1008D0002DE9F0414FF0000704003D467ED0A06AAC
:1008E000002628B9E66284F82460204600F07EF8ED
:1008F0002046FFF709FFA16AC90600D420B1A06A0B
:1009000040F01000A06269E0A16A21F4885141F032
:100910000201A1626268E169237B0A4347EA43015D
:100920000A43A1684FF48077B94209D0012907D062
:100930005FF0000194F814C0BCF1010F02D00AE08E
:100940003946F7E7F3B1A36A43F02003A362E36AF1
:1009500043F00103E3622368D3F804C02CF4694C2C
:100960004CEA010CC3F804C021688B68DFF870C042
:1009700003EA0C0313438B60A168B9420BD0012931
:1009800009D00CE0DFF85CC0A3690CEB43330B43E8
:1009900043F40061DFE7218A0D05A5F58015216884
:1009A000CB6A23F470032B43CB62216889680E4B1A
:1009B0001940914208D1E662A16A21F0020141F09A
:1009C0000101A162BDE8F081A06A20F0020040F0C0
:1009D0001000A062E06A40F00100E0620120F1E74F
:1009E000FDF7E1FF00E0FFFFFE0E1FFF00B585B041
:1009F0000021009101910291039100680E49884203
:100A000018D10E48816941F400718161816901F456
:100A100000710491816941F0080181618069694632
:100A200000F0080004900120009003200190044889
:100A300000F02CF905B000BD002401400010024078
:100A4000000C01402DE9F84300260D4604460096AF
:100A500000F006FA804620688168C90508D5A06ABA
:100A600040F02000A06284F824600120BDE8F883F3
:100A70004168C90503D4C06A10F4700F26D0022063
:100A800000F084FA38490968B1FBF0F7206803697F
:100A900036490B424FEA61014FEAA1121BD1C368EC
:100AA0004FEA611C13EA0C0F15D103690B4221D1E7
:100AB000C06810421ED114201FE0681C06D045B348
:100AC00000F0CEF9A0EB0800A84222D82068006808
:100AD0008007F2D52AE003690B4202D1C1681142B6
:100AE00006D0026922490A4206D1C068084203D1F1
:100AF000542002E0292000E0FC204743009813E046
:100B0000681C0ED02DB100F0ABF9A0EB0800A84294
:100B100007D9A06A40F00400A06284F82460032092
:100B2000A4E70098401C0090B842E9D321686FF018
:100B300012000860A06A40F40070A062206880681B
:100B4000C0F3424007280CD1207B50B9A06A20F4A2
:100B50008070A062A06AC00403D4A06A40F00100C3
:100B6000A062002082E700001400002024499224A3
:100B70004992240070B5044690F8240001280DD055
:100B8000012084F824002046FFF7E4FD02004FF026
:100B9000000005D084F82400104670BD022070BD0E
:100BA000A16A40F20123994341F48071A1621F4D73
:100BB00023681F49AB4218D10E6816F4702F14D069
:100BC000A66A46F48016A6620E68760505D5A66A62
:100BD00026F4005646F48056A662A66AF6040AD5A4
:100BE000E66A26F00606E66206E0A66A26F48016A5
:100BF000A6625E68E9E7E06284F824006FF0020014
:100C0000186020688368C3F34243072B05D1A842CC
:100C100008D1096811F4702F04D0816841F4801163
:100C20008160B9E7816841F4A001F9E7002801403B
:100C30000424014010B5044690F82400012807D090
:100C4000012084F824002046FFF75EFD10B107E084
:100C5000022010BDA16A21F4885141F00101A16276
:100C6000002184F8241010BD70B5044600F0F8F897
:100C70000546601C02D004480078044400F0F0F8F7
:100C8000401BA042FAD370BD080000202DE9F84FA8
:100C9000DFF89C91002409F1040A0AF1040B2346B1
:100CA0000F270BF1040EBBE00125A5402A40AA4204
:100CB00076D1DFF880C14E68A6EB0C0866452BD0D4
:100CC0000DDC032E34D005DC36B3012E19D0022EF4
:100CD0002FD11BE0112E16D0122E2AD119E0B8F513
:100CE000881F19D006DCB8F5803F15D0B8F5801FF5
:100CF0001FD111E0B8F5001F0ED0B8F5041F18D1B0
:100D00000AE0CB6815E0CB681B1D12E0CB68083306
:100D10000FE0CB680C330CE08B682BB1012B4FF04C
:100D2000080303D0456104E0042302E0056100E00C
:100D30000023FF2A01D8064601E000F104064FEA2D
:100D4000840501D9A5F12005D6F8008007FA05FC35
:100D500028EA0C0803FA05F548EA0508C6F80080F9
:100D60004D68ED005BD5344DAE6946F00106AE61CD
:100D7000AD6924F0030605F0010500952F4D06EB43
:100D8000050CDCF80850A607360F07FA06F825EA26
:100D90000805DFF8AC80404503D14FF0000810E0B3
:100DA0003DE0DFF8A080404502D14FF0010808E0A7
:100DB000DFF89480404502D14FF0020801E04FF087
:100DC000030808FA06F848EA0508CCF808804D68D8
:100DD000D9F80060ED034D4601D5164300E0964377
:100DE0002E604D68DAF80060AD03554601D5164314
:100DF00000E096432E604D68DBF80060ED025D4632
:100E000001D5164300E096432E604D68DEF8006081
:100E1000AD02754601D5164300E096432E60641C72
:100E20000A6832FA04F57FF43FAFBDE8F88F00009E
:100E300000040140000011100010024000000140B9
:100E400000080140000C014000100140806808408B
:100E500000D0012070470AB1016170470904FBE727
:100E6000014880687047000008000020024881683F
:100E7000027811448160704708000020074810B5CF
:100E8000016841F010010160032000F067F80020C4
:100E900000F006F800F024F8002010BD0020024009
:100EA00070B50D4D04464FF47A712878B1FBF0F01F
:100EB0000A490968B1FBF0F000F081FD48B9102C37
:100EC00007D200222146501E00F028F800206C6056
:100ED00070BD012070BD000008000020140000203B
:100EE0000C4808B5816941F001018161816901F017
:100EF00001010091C16941F08051C161C06900F0F8
:100F0000805000900448416821F0E06141F0806128
:100F1000416008BD0010024000000140F0B40E4BDB
:100F20001B680C46C3F30223C3F10705042D00D947
:100F30000425191D072901D2002300E0DB1E01262C
:100F400006FA05F1491E214099409E40761E164042
:100F50003143F0BC00F06EBF0CED00E0064900F03C
:100F6000070208684FF6FF03184040EA0220034AD0
:100F700010430860704700000CED00E00000FA0527
:100F8000014901200862704700000E4210B529A4F3
:100F900001461DCC86B08DE81D002AA02A4C0068B1
:100FA00004900020012923D002293AD010291DD114
:100FB00061682268D20119D5C1F38342C9031DF8C3
:100FC000020009D5616804AAC1F34041515C1F4A7F
:100FD000B2FBF1F1484301E01D4948436168490211
:100FE00004D440005FF00301B0FBF1F006B010BD87
:100FF000226AC2F30121012903D1920701D5C80356
:10100000F4E7022905D1626A920702D549F6404009
:10101000ECE70329EAD121688903E7D54FF22440A0
:10102000E4E700F023F96168C1F38131491C49000C
:10103000DAE7000002030405060708090A0B0C0D95
:101040000E0F1010010200000010024000127A0082
:1010500000093D002DE9F84305460078354CC007EE
:1010600054D0E0690026C00008D4E06940F0805008
:10107000E061E069012600F0805000902E48016890
:10108000C90512D40168804641F480710160FFF700
:10109000E7FE074605E000BFFFF7E2FEC01B64283D
:1010A00023D8D8F80000C005F6D5206A10F44070A7
:1010B00021D0A98801F4407181421CD0206A1F49C7
:1010C000012220F440700A6000220A602062C007FA
:1010D00011D0FFF7C5FE074641F2883808E000BF8F
:1010E000FFF7BEFEC11B414502D90320BDE8F883CE
:1010F000206A8007F4D5206A696820F440700843AC
:1011000020621EB1E06920F08050E06128788007FD
:1011100005D56068A96820F44040084360602878DD
:10112000C00605D56068E96820F480000843606067
:101130000020DBE700100240007000404004424203
:101140002DE9F0470F46050061D0434E306800F0AE
:101150000700B84209D2306820F0070038433060F9
:10116000306800F00700B84251D128683B4C810735
:1011700012D5400703D5606840F4E06060602878CD
:10118000000703D5606840F4605060606068A9683B
:1011900020F0F000084360602878C00728D0686815
:1011A000012810D02168022810D0890700292EDAE2
:1011B000616821F0030101436160FFF751FE804641
:1011C00041F288390DE021688903EFE78901EDE7F5
:1011D000FFF746FEA0EB0801494502D90320BDE810
:1011E000F0876068696800F00C00B0EB810FEFD108
:1011F000306800F00700B8420BD9306820F00700D3
:1012000038433060306800F00700B84201D0012058
:10121000E5E72878400705D56068E96820F4E060D4
:10122000084360602878000706D56068296920F4C3
:10123000605040EAC100606000F028F86168084A28
:10124000C1F30311515CC8400649086006480068B4
:10125000FFF726FE0020C2E70020024000100240F7
:10126000442D0008140000200C000020044805490B
:1012700000684968044AC1F3C221515CC840704704
:101280001400002000100240542D000812A185B067
:101290000FC98DE80F0014A0144A0068049051682B
:1012A000134801F00C03042B10D0082B0ED1C1F30E
:1012B0008343C9031DF803000AD5516804AAC1F38A
:1012C0004041515C0A4A5043B0FBF1F005B0704711
:1012D00008494843FAE70000020304050607080925
:1012E0000A0B0C0D0E0F101001020000001002403E
:1012F00000127A0000093D002DE9F84F040070D07B
:101300002078C04DC00749D06868C0F3810001282B
:1013100007D06868C0F38100022809D16868C0035B
:1013200006D52868800339D560680028E7D035E005
:101330006068B0F5803F0BD010B1B0F5A02F11D090
:10134000286820F480302860286820F4802002E09B
:10135000286840F480302860606890B1FFF780FD15
:1013600006460AE0286840F480202860F0E700BFC5
:10137000FFF776FD801B642873D828688003F7D5B3
:101380000CE0FFF76DFD064605E000BFFFF768FDC6
:10139000801B6428F0D828688003F7D420789A4E00
:1013A00080074FF001094FF0000839D5686810F048
:1013B0000C0F07D06868C0F38100022809D1686863
:1013C000C00306D42868800714D52069012808D1F5
:1013D00010E02069B0B1C6F80090FFF741FD074664
:1013E00005E00AE1FFF73CFDC01B0228C4D82868CD
:1013F0008007F7D52868616920F0F80040EAC1004D
:1014000028600DE0C6F80080FFF72AFD074604E0DB
:10141000FFF726FDC01B022823D828688007F7D4D1
:10142000207800072CD57948A169D9B1C0F800907F
:10143000FFF716FD074604E0FFF712FDC01B022868
:101440000FD8686A8007F7D571484FF4FA510068E1
:10145000B0FBF1F0009000BF0098411E0091FAD25D
:101460000EE080E0C0F80080FFF7FAFC074604E0D9
:10147000FFF7F6FCC01B022875D8686A8007F7D40E
:101480002078400760D5E8690027C00008D4E869E3
:1014900040F08050E861E869012700F0805000903A
:1014A0005C480168C90513D40168834641F4807122
:1014B0000160FFF7D5FC824606E000BFFFF7D0FCD5
:1014C000A0EB0A0064284ED8DBF80000C005F5D573
:1014D000E06801280AD008B1052813D0286A20F056
:1014E00001002862286A20F0040002E0286A40F027
:1014F00001002862E06841F2883B98B1FFF7B0FC38
:1015000082460BE0286A40F004002862EEE700BF44
:10151000FFF7A6FCA0EB0A0159455AD8286A8007B4
:10152000F6D50CE0FFF79CFC824605E0FFF798FC3F
:10153000A0EB0A0159454CD8286A8007F6D41FB1A0
:10154000E86920F08050E861E06988B36968C1F318
:101550008101022944D00228C6F8608004D0FFF738
:101560007FFC044638E034E0FFF77AFC074604E0ED
:10157000FFF776FCC01B02282BD828688001F7D41F
:10158000206AB0F5803F05D16868A16820F400307A
:1015900008436860D4E908010843696821F47411BC
:1015A00008436860C6F86090FFF75AFC044606E0FE
:1015B00025E000BFFFF754FC001B022809D828686B
:1015C0008001F7D51BE000BFFFF74AFC001B022893
:1015D00002D90320BDE8F88F28688001F4D40EE01A
:1015E0000128F7D06868226A00F48031914204D162
:1015F000616A00F47010884201D00120EAE70020FF
:10160000E8E700000010024000004242800442422D
:101610001400002000700040F8B505004FF00000F5
:1016200016460C46009006D02CB10022694628468A
:1016300000F019F808B10120F8BD287B2070E87B84
:10164000E070697B6170A97BA17056B100F084FAEB
:10165000E070607800F080FA6070A07800F07CFAAA
:10166000A0700020F8BD2DE9F04791460C465FEAD6
:1016700000084AD084B3D8F800004068400744D43A
:10168000404600F007FB4FF461620546B0FBF2F103
:10169000B0FBF2F302FB13503C23B0FBF3F0B5FBBD
:1016A000F2F6607002FB1650B0FBF3F203FB12007F
:1016B000A070182931D31820B1FBF0F7B1FBF0F27C
:1016C00000FB12102070404600F0DDFA411C04D0EF
:1016D000A84202D9461B02E017E04FF0FF36A7EB05
:1016E000071000EB4000C0EB001005EBC0152946C9
:1016F000404600F01EFB40B9701C01D0711900E09B
:101700003146404600F001FB10B10120BDE8F087F2
:101710003946404600F02BFA00E02170B9F1000F85
:101720000BD0207800F018FA2070607800F014FADE
:101730006070A07800F010FAA0700020E6E70000CA
:1017400070B5040003D0607C002610B105E00120D4
:1017500070BD2674204600F043F8022060742046D5
:1017600000F010F9042578BB204600F057FA58BB6A
:101770002068416821F007014160A06820B1174846
:10178000016821F0010101601448001F0168A2688E
:1017900021F46071114301606068411C04D1012093
:1017A000FFF7F4FB80B1401E21688A6822F00F0227
:1017B00042EA10428A602168CA6860F30F02CA6078
:1017C000204600F045FA08B16574C0E7E6730120D1
:1017D0006073A0736074002070BD0000306C004026
:1017E00008B50068084988420DD1FFF7C9FB0748D2
:1017F000C16941F00061C161C069054900F0006044
:1018000000900120086008BD002800400010024040
:101810003C0442422DE9F0410D4604003BD0C5B3E3
:10182000207C01283AD04FF0010884F81080022073
:101830006074E87872B300F086F9E073687800F0BD
:1018400082F96073A87800F07EF9A073C2B2617B60
:10185000E07B00F02FFA20732870204600F01AFA7F
:101860004FF46161B0FBF1F1002518292DD9182240
:10187000B1FBF2F1A1EB011101EB4101C1EB01114F
:1018800000EBC1163146204600F053FA0427C8B9D0
:101890000BE000E004E00120BDE8F0810220FBE75E
:1018A000E07368786073A878CFE7204600F0EBF922
:1018B000411C0AD0B04208D206490144204600F03B
:1018C00024FA10B167742574E5E784F81180257453
:1018D0000020E1E7805101002DE9F0410D460400B0
:1018E00024D01DB3207C012823D04FF0010884F8B8
:1018F0001080022060742878EAB100F024F94FF4D7
:10190000616100FB01F6687800F01DF9C0EB001082
:1019100006EB8006A87800F016F93518294620460F
:1019200000F007FA0026042710BB0FE00120BDE8F5
:10193000F0810220FBE74FF4616148436978C1EB15
:10194000011100EB8100A9784518E7E7206841689C
:1019500021F005014160204600F095F9411C0AD0B4
:10196000A84208D206490144204600F0CEF910B141
:1019700067742674DAE784F8118026740020D6E7AD
:101980008051010070B504000AD02068416821F040
:1019900008014160FFF764FA05464FF47A7608E0E3
:1019A000012070BDFFF75CFA401BB04201D9032053
:1019B00070BD206840680007F4D5002070BD10B5E8
:1019C000401EB0F1807F01D3012010BD4FF0E02414
:1019D00060610F21601700F02DFA0020A061072040
:1019E0002061002010BDFEE73EB5002411480094A0
:1019F000019402940E49846001600473047501250A
:101A000005614FF460214460C161FEF761FF08B1D8
:101A1000FEF7DAFE0820CDE9000569460294054884
:101A2000FEF7D4FE002801D0FEF7CEFE3EBD00003A
:101A300000240140180000202DE9F04385B0002467
:101A400021480094019402940394816941F00401B7
:101A50008161816901F004010491816941F008010B
:101A600081618069DFF8648000F0080040F6FF754E
:101A70000490002229464046FFF7EDF9DFF8509028
:101A800040F27E47002239464846FFF7E4F9012636
:101A9000CDE90056022569464046CDE90245FFF7EB
:101AA000F5F8CDE9007669464846CDE90245FFF7ED
:101AB000EDF84FF4F0408DE8310069464846FFF7F5
:101AC000E5F805B0BDE8F0830010024000080140D1
:101AD000000C01401CB500241848019416490094DC
:101AE0000160611E41604FF480718160FFF728FE44
:101AF00008B1FEF769FE8DF804408DF805408DF8B9
:101B00000640002201A90D48FFF7E6FE08B1FEF7E6
:101B10005BFE01208DF800008DF801008DF80200B9
:101B20008DF80340002269460448FFF773FE002841
:101B300001D0FEF749FE1CBD0028004048000020EF
:101B4000FEE770477047010901EB810100F00F00CB
:101B500000EB4100C0B27047002102E00A38C0B279
:101B6000491C0A28FAD2090740EA116070472DE99A
:101B7000F04104460025C07B627BA37B42E0012A42
:101B800016D0032A14D0052A12D0072A10D0082A0A
:101B90000ED00A2A0CD00C2A0AD0042A10D0062A09
:101BA0000ED0092A0CD00B2A0AD0022A0DD028E028
:101BB0001F2B0CD30C2A05D101221346401C20E018
:101BC0001E2B04D30123521C1BE01C2B02D203F159
:101BD000010316E011D183B29E0710D16426B3FB36
:101BE000F6F706FB173636B94FF4C876B3FBF6F7AF
:101BF00006FB17331BB91D2303E01D2B01D1032264
:101C000001236D1C8D42BAD3D1B2E0736173DAB295
:101C1000A27300F04FF82073BDE8F08170B5044660
:101C2000FFF71EF905464FF47A7606E0FFF718F93C
:101C3000401BB04201D9032070BD20684068800677
:101C4000F4D52068416841F010014160002070BD6A
:101C500070B504460068416821F010014160FFF74B
:101C6000FFF805464FF47A7607E000BFFFF7F8F873
:101C7000401BB04201D9032070BD20684068800637
:101C8000F4D5002070BD0168086A496A89B241EA4A
:101C900000407047006881698AB2C1698BB281696E
:101CA00089B28A4203D0C06961F31F40704743EA9A
:101CB00002407047F0B56424C1EBC1030927A500B9
:101CC000072603EB01130329B3FBF7F100F5FA60D4
:101CD000114401440AD2401EB0FBF4F201EB900122
:101CE000B0FBF5F0891A0844001D08E0B0FBF4F2DF
:101CF00001EB9001B0FBF5F0891A0844801CB0FBA1
:101D0000F6F106FB1100C0B2F0BD70B50D460646F7
:101D10000024FFF783FF48B93168280C0862316856
:101D2000A8B248623046FFF793FF00B10124204675
:101D300070BD70B50D4606460024FFF76FFF48B929
:101D40003168280C88613168A8B2C8613046FFF755
:101D50007FFF00B10124204670BD7047FFF786B8B1
:101D600010B594B028216846FEF705FA14210AA898
:101D7000FEF701FA00240F940A200090012010942D
:101D80001194CDE906041021CDE9040112946846AE
:101D9000FFF7B2FA0F20CDE90A040C940D9400214C
:101DA0000AA80E94FFF7CCF903200F904FF40070AF
:101DB000CDE910040FA8FFF74DF914B010BD0000D5
:101DC0000D48016841F00101016041680B4A114072
:101DD000416001680A4A11400160016821F48021D4
:101DE0000160416821F4FE0141604FF41F018160F0
:101DF0000449C00308607047001002400000FFF86B
:101E0000FFFFF6FE08ED00E0FEE700000FB4084B10
:101E100010B504A902AA039800F02CF8044602A900
:101E2000002000F0C8F9204610BC5DF814FB00004B
:101E3000B72100080907090E002804DB00F1E020A3
:101E400080F80014704700F00F0000F1E02080F8E7
:101E5000141D704702E008C8121F08C1002AFAD1F9
:101E600070477047002001E001C1121F002AFBD11A
:101E7000704700002DE9FF4F8BB0884605460026CD
:101E800006E025280BD0DDE90D1290476D1C761C6D
:101E900028780028F5D10FB03046BDE8F08F002437
:101EA000A146A2460122AE4900E0044315F8013FD5
:101EB000203B02FA03F00842F7D128782A2810D0F4
:101EC0006FF02F022878A0F13001092915D809EB0D
:101ED000890102EB410144F0020400EB01096D1C91
:101EE000F0E758F8041B5FEA010903D544F40054F5
:101EF000C9F1000944F002046D1C28782E2817D17E
:101F000015F8010F44F004042A280ED06FF02F02B8
:101F10002878A0F1300109290AD80AEB8A0102EBDE
:101F2000410100EB010A6D1CF2E758F804AB6D1C8F
:101F300028786C280FD006DC4C2817D068280DD0E4
:101F40006A2814D104E0742810D07A280FD10DE04B
:101F500044F400140AE044F4801401E044F4401412
:101F60006978814202D104F580146D1C6D1C2878BB
:101F7000692865D006DC00288DD0632827D0642826
:101F800006D15DE06E2808D073282AD0752877D056
:101F9000DDE90D129047761CE0E0C4F30250022800
:101FA00009D003280DD0D8F8001004280DD00E60F9
:101FB00008F10408D2E0D8F80010F217C1E9006275
:101FC000F6E7D8F800100E80F2E70E70F0E718F888
:101FD000041B8DF8001000208DF80100EB46012055
:101FE00003E058F804BB4FF0FF3061074FF00007E3
:101FF00001D40AE07F1C57450DDA8742FADB1BF853
:1020000007100029F6D106E07F1C8742FCDB1BF895
:1020100007100029F8D1DDE90D23A9EB070081465F
:10202000214600F0B1F83044C61904E0DDE90D1294
:102030001BF8010B90477F1EF8D22146484688E0E6
:1020400058F8040BC4F302514FF00A0B032900D1D6
:1020500000B2042900D140B2002802DA40422D210A
:1020600002E0210505D52B218DF82410012104E083
:1020700006E0E10710D02021F6E708AF089113E051
:1020800058F8040BC4F302514FF00A0B032900D196
:1020900080B2042900D1C0B20021EEE75946FEF714
:1020A00055FA303107F8011D0028F7D1ADEB0700D4
:1020B00000F1200B600702D524F4803401E04FF0DA
:1020C000010ADA4502DDAAEB0B0000E0002082469F
:1020D00000EB0B0108980144A9EB01000A90E00312
:1020E00006D4DDE90D2321460A9800F04DF8064498
:1020F0004FF0000908E009A911F80900DDE90D1207
:10210000904709F10109761C08998945F3DBE00342
:102110000CD5DDE90D2321460A9800F035F8064478
:1021200004E0DDE90D1230209047761CBAF1000181
:10213000AAF1010AF5DC05E0DDE90D1217F8010B43
:102140009047761CBBF10001ABF1010BF4DC0A985F
:102150002146DDE90D2300F005F806446D1C97E6E5
:10216000092801002DE9F041044600251E461746C6
:10217000880404D405E039462020B0476D1C641E55
:10218000F9D52846BDE8F0812DE9F0410446002547
:102190001E469046C80301D5302700E0202788045A
:1021A00004D505E041463846B0476D1C641EF9D59C
:1021B0002846BDE8F0810A68531C0B601070704718
:1021C0002DE9FF474FF4806501AA00200124022673
:1021D000009582E85100DFF8448069464046FEF7EA
:1021E00055FD0E4FE002103738600120FEF73CFD30
:1021F00029464046FEF72AFE8146E0063860012067
:10220000FEF732FDCDE90054CDE90246694640466D
:10221000FEF73CFD04B04846BDE8F08700080140E9
:1022200070B5424A88B00FCA8DE80F0000F06AF915
:102230000221002000F044F93DA000F055F90021F2
:10224000012000F03DF93EA000F04EF903246D4658
:1022500046E000BF00F018FA0646C4F10B01012069
:1022600000F02EF90B2E3BD2DFE806F03A0B1217E6
:102270001C21262B3035060034A000F035F9002053
:1022800003E033A000F030F9012045F824002BE0F2
:1022900030A000F029F90220F7E72FA000F024F980
:1022A0000320F2E725A000F01FF90420EDE72BA0A2
:1022B00000F01AF90520E8E729A000F015F906203A
:1022C000E3E728A000F010F90720DEE726A000F0E1
:1022D0000BF90820D9E725A000F006F90920D4E77A
:1022E00055F824004228B5D0641EF9D5039800990A
:1022F00000EB4002C2EBC01001EBC0010298642267
:102300005043019A02EB820200EB42000A1818A126
:1023100004A8FFF77BFD0021032000F0D1F804A8FA
:1023200000F0E2F800F0EEF808B070BD342D0008BF
:10233000436F6E6669672052656C6520340000004B
:102340005350206C756D693A200000003000000089
:1023500031000000320000003300000035000000B2
:10236000360000003700000038000000390000008F
:102370005350206465206C756D693A202564000017
:1023800010B5094C4FF0806020600120FEF76CFC16
:10239000E01420600120FEF767FCE0052060BDE846
:1023A00010400120FEF760BC1008014010B5094C38
:1023B0004FF4806020600120FEF756FCE01420609E
:1023C0000120FEF751FCE0052060BDE8104001202F
:1023D000FEF74ABC1008014000B589B000220E4942
:1023E0000E48FFF740F90C490022C91C0B48FFF7C3
:1023F00013F90948817800914378027808A101A86F
:10240000FFF704FD0421012000F05AF801A800F0B4
:102410006BF809B000BD000000000020480000205B
:10242000253032643A253032643A25303264000077
:1024300000B589B000F014F9024606A16846FFF71E
:10244000E5FC0321022000F03BF8684600F04CF860
:1024500009B000BD4C3A2025303464206C7800006F
:1024600000B589B000F0B6F9024606A16846FFF74C
:10247000CDFC0921002000F023F8684600F034F874
:1024800009B000BD543A202532646F4300000000BB
:1024900000B589B000F0E2F9024606A16846FFF7F0
:1024A000B5FC0121002000F00BF8684600F01CF894
:1024B00009B000BD553A20253264202525000000D2
:1024C000102910DA48B1012809D0022809D00328C0
:1024D00009D1D431C8B200F027B88031FAE7C03151
:1024E000F8E79431F6E7704770B506460024FDF72B
:1024F0004DFE054603E0305D00F03AF8641CAC4246
:10250000F9DD70BD70B50024002529462046FFF78F
:10251000D7FF202000F02CF86D1C102DF5DB641C7B
:10252000042CF1DB70BD000070B5104D0446002294
:102530004FF400712846FEF78EFC0C49FF20143141
:102540000860081F04608415012221462846FEF712
:1025500082FC0120FEF788FB002221462846FEF778
:102560007AFCBDE870400120FEF77EBB0008014008
:1025700070B5104D0446012251022846FEF76BFC4F
:102580000C49FF2014310860081F046084150122E3
:1025900021462846FEF75FFC0120FEF765FB00227E
:1025A00021462846FEF757FCBDE870400120FEF7A3
:1025B0005BBB00000008014010B53820FFF7B4FFF6
:1025C0000E20FFF7B1FF0620FFF7AEFF0120FFF757
:1025D000ABFFBDE810406420FEF746BB2DE9FF5F6E
:1025E00000244FF4806701AA204601264FF002091B
:1025F000009782E84102DFF8648069464046FEF7B2
:1026000045FB164F00254FF4006A10374FF0006B62
:10261000C7F800A00120FEF727FB60064FEA10680C
:102620004FF480610D48FEF711FC40EA0804C7F83A
:1026300000B00120FEF718FB6D1C082DE8DB4FF4FD
:102640008060CDE90006CDE9026969460348FEF7DE
:102650001DFB04B060B2BDE8F09F0000000801401F
:1026600010B50848FEF786FA64210648FEF7EAF935
:102670000448FEF729F984B20248FEF7DBFA204647
:1026800010BD0000180000202DE9F0473220FEF7B1
:10269000EBFA4FF480656E00AF004FF400584FF432
:1026A00080494B4C09E040B1012832D002285ED06D
:1026B000401C0328F7DBBDE8F087012202212046F9
:1026C000FEF7C9FB002204212046FEF7C4FB0022CE
:1026D00029462046FEF7BFFB31462046FEF7B6FBF3
:1026E00008B10120E7E739462046FEF7AFFB08B105
:1026F0000620E0E741462046FEF7A8FB08B1072088
:10270000D9E749462046FEF7A1FB00285ED04D20C0
:10271000D1E73220FEF7A8FA002202212046FEF778
:102720009AFB012204212046FEF795FB0022294650
:102730002046FEF790FB31462046FEF787FB08B1A6
:102740000220B8E739462046FEF780FB08B1052095
:10275000B1E741462046FEF779FB08B10820AAE719
:1027600049462046FEF772FB08B10A20A3E7322053
:10277000FEF77AFA002202212046FEF76CFB0022C7
:1027800004212046FEF767FB012229462046FEF77A
:1027900062FB31462046FEF759FB08B103208AE769
:1027A00039462046FEF752FB08B1042083E7414634
:1027B0002046FEF74BFB08B109207CE7494620463E
:1027C000FEF744FB00288DD0632074E701206AE700
:1027D000000C014070B500F073FAFFF7D1FDFFF770
:1027E000CFFDFFF7CDFDFFF7CBFDFFF7C9FDFFF7ED
:1027F000C7FDFFF7DBFDFFF7D9FDFFF7E1FC4FF465
:10280000B470FEF731FAFFF7E9FE0446FFF7B8FDB2
:10281000FFF7E4FEC5B2FFF7B3FDFFF7DFFEFFF7FA
:10282000C5FD04F03F0045EA0020FDF74DFE074AD4
:10283000074BFDF7BDFD074A074BFDF712FDFDF7FE
:1028400069FEBDE87040FDF74CBE00007B14AE474A
:10285000E17A843FCDCCCCCCCCCC43C070B500F079
:102860002FFAFFF78DFDFFF78BFDFFF789FDFFF7CF
:1028700087FDFFF785FDFFF799FDFFF781FDFFF766
:1028800095FDFFF79DFC6420FEF7EEF9FFF7A6FE2D
:102890000446FFF775FDFFF7A1FEC5B2FFF770FD17
:1028A000FFF79CFEFFF782FD04F00F0045EA0024CD
:1028B00004FB04F0FDF7F7FD0D4A0E4BFDF778FD24
:1028C00006460D462046FDF7FFFD0B4A0B4BFDF774
:1028D0006FFD0B4A0B4BFDF7C4FC32462B46FDF750
:1028E000C0FCFDF717FEBDE87040FDF7FABD000023
:1028F0007E2293AFAB99BABE27C286A757CAA23F22
:10290000569FABADD85F00C0FEF7B8FAFFF728FAC4
:10291000FFF792F8FFF7DEF8FFF766F8FFF74CFED7
:102920000C481D2100228170082141700621017090
:102930001421C17001460848FEF76CFFFFF7A8FD9F
:10294000FFF78EFDFFF748FDFFF772FD00F06AF814
:10295000F4E70000030000204800002038B5002400
:102960002546FFF7CFFD05210020FFF7A9FD1FA099
:10297000FFF7BAFD00210120FFF7A2FD1DA0FFF720
:10298000B3FD00210220FFF79BFD1EA0FFF7ACFD69
:1029900008210320FFF794FD1FA0FFF7A5FD00BF4E
:1029A000FFF772FE4D281AD063280FD000B10446FD
:1029B00022461BA16846FFF729FA00210320FFF7F2
:1029C0007FFD6846FFF790FD422DE9D1FFF79AFDA4
:1029D000012C07D0022C01D100F03CF838BDFFF7E4
:1029E00091FDF3E700F09AF838BD00004D454E55D3
:1029F0000000000031202D20416A75737461204869
:102A00006F72610032202D20436F6E66696720521D
:102A1000656C65730000000023202D3E204F4B00A5
:102A20002564000010B501210320FFF749FD06A031
:102A3000FFF75AFDFFF728FE632803D1BDE81040D9
:102A4000FFF78CBF10BD000023202D3E204D656E8A
:102A50007500000038B500242546FFF753FD02211C
:102A60000020FFF72DFD1FA0FFF73EFD00210120F4
:102A7000FFF726FD1EA0FFF737FD00210220FFF71C
:102A80001FFD1FA0FFF730FD08210320FFF718FDF1
:102A90001FA0FFF729FD00BFFFF7F6FD4D281ED050
:102AA00063280FD000B1044622461BA16846FFF7F9
:102AB000ADF900210320FFF703FD6846FFF714FD81
:102AC000422DE9D1FFF71EFD012C07D0022C05D0C5
:102AD000032C03D0042C01D1FFF7A2FB38BDFFF774
:102AE00011FDEFE74D454E552052454C4553000032
:102AF000312D20524C31202020322D20524C3200DA
:102B0000332D20524C33202020342D20524C3400C1
:102B100023202D3E204F4B00256400002DE9F0437B
:102B200087B0182252496846FDF70CFB4FF07E58DB
:102B3000FFF7E8FC01210020FFF7C2FC4DA0FFF7E2
:102B4000D3FC04210120FFF7BBFC4EA0FFF7CCFC17
:102B500005246D46002653E0FFF796FD0746012148
:102B60004046FDF772FB8146C4F10B00FDF792FC75
:102B70004946FDF764FBFDF7B4FC01460120FFF771
:102B80009FFC0B2F3CD2DFE807F03B0C11181D22F5
:102B9000272C313606003EA0FFF7A6FC45F824603E
:102BA00032E03CA0FFF7A0FC012003E03AA0FFF7D1
:102BB0009BFC022045F8240026E038A0FFF794FC97
:102BC0000320F7E736A0FFF78FFC0420F2E735A0DB
:102BD000FFF78AFC0520EDE733A0FFF785FC062010
:102BE000E8E732A0FFF780FC0720E3E730A0FFF71B
:102BF0007BFC0820DEE72FA0FFF776FC0920D9E751
:102C000055F824004228A7D04FF07A514046FDF7EE
:102C100016FB8046641EF3D5DDE9040101EB81015A
:102C200000EB41012448172900DD17210170DDE97F
:102C3000021202EB820201EB42013C2901DD4670E7
:102C400000E04170DDE9001202EB820201EB42017B
:102C50003C2901DD867000E081700022164917488A
:102C6000FEF73AFEFFF74EFC07B0BDE8F083000028
:102C70001C2D0008436F6E66696775726120486F8E
:102C80007261000030303A30303A303000000000DD
:102C9000300000003100000032000000330000006E
:102CA000340000003500000036000000370000004E
:102CB000380000003900000000000020480000201B
:102CC0002DE9F041144C4FF0006525602615266073
:102CD0000120FDF7C9FFE71427600120FDF7C4FFBD
:102CE0004FF08068C4F800800120FDF7BDFF25602B
:102CF0000120FDF7B9FF27600120FDF7B5FF266031
:102D00000120FDF7B1FF25600120FDF7ADFFC4F8FC
:102D10000080BDE8F0810000100801404200000082
:102D2000420000004200000042000000420000009B
:102D3000420000004200000042000000420000008B
:102D40004200000000000000000000000102030437
:102D50000607080900000000010203047C2D00089A
:102D60000000002018000000541E0008942D0008E8
:102D70001800002048040000641E00080000000045
:102D80000000000001000000100000000000000032
:042D90000024F40027
:04000005080000ED02
:00000001FF
