:020000040800F2
:1000000060040020010100081B190008BF17000848
:1000100019190008C50600081D1B00080000000093
:100020000000000000000000000000006F1A00083F
:10003000C7060008000000001D190008711A00081A
:100040001B0100081B0100081B0100081B01000820
:100050001B0100081B0100081B0100081B01000810
:100060001B0100081B0100081B0100081B01000800
:100070001B0100081B0100081B0100081B010008F0
:100080001B0100081B0100081B0100081B010008E0
:100090001B0100081B0100081B0100081B010008D0
:1000A0001B0100081B0100081B0100081B010008C0
:1000B0001B0100081B010008000000001B010008D4
:1000C0001B01000800000000000000001B010008E8
:1000D000000000001B0100081B01000800000000D8
:1000E0001B0100081B0100081B010008DFF80CD0F1
:1000F00000F078FA004800473D2200086004002024
:100100000648804706480047FEE7FEE7FEE7FEE7B1
:10011000FEE7FEE7FEE7FEE7FEE7FEE7D51A00088A
:10012000ED000008202A04DB203A21FA02F0002129
:10013000704721FA02F3D040C2F1200291400843F7
:1001400019467047D2B201E000F8012B491EFBD2DC
:1001500070470022F6E710B513460A4604461946D2
:10016000FFF7F0FF204610BD421C10F8011B0029CC
:10017000FBD1801A70472DE9FE4F804681EA0300CB
:10018000C00F0C46009021F0004123F00045B8EB71
:100190000200A94105D24046214690461C460B4626
:1001A000024623F00040104347D0270DC7F30A0052
:1001B000C3F30A510290401A019040286BDAC3F34E
:1001C000130040F4801B0098924620B10023D2EB2C
:1001D000030A63EB0B0B01985946C0F140025046ED
:1001E00000F04BF906460D4650465946019A00F07C
:1001F00053F910EB08006141002487EA115284EAA8
:10020000E7731A4340D0009A62B3019A012A4FEA79
:10021000075215DC001B61EB02014FF0004202EABD
:100220000752CDE90042001C41F5801132462B46B1
:1002300000F08AF903B0BDE8F08F40462146F9E7A7
:10024000001B61EB0201001C41F5801300185B41AB
:100250002018A2F5001747EB030140EAD570B61944
:100260006D4111E06D084FEA360645EAC0754FEA68
:100270000752001B61EB0201001C41F58011490887
:100280004FEA30000019514132462B4603B0BDE819
:10029000F04F00F04AB90098012240000023D0EB53
:1002A000020263EBE073009821464FEAE074B8EB7A
:1002B000000061EB0401E9E783F000435BE781F0B4
:1002C000004158E72DE9FE4F81EA030404F00044A1
:1002D00021F0004100944FF0000B23F0004350EA5E
:1002E00001045ED052EA03045BD0C3F30A54C1F3A5
:1002F0000A552C44A4F2F3340194A0FB0254C1F338
:10030000130141F48011C3F3130343F4801301FB81
:10031000024400FB034E840A970A44EA815447EAE8
:100320008357A4FB076802958D0A05FB07854FEAF2
:10033000932C04FB0C542705029D4FEA065847EA0C
:100340001637B5EB08056EEB070C870E920E47EAE1
:10035000811742EA8312A7FB0201B6EB0B0164EBA3
:1003600000042B0D43EA0C335E1844EB1C50DA46B4
:100370005146E7FB0201C5F313044FEA0B3343EA8E
:1003800014534FEA0432019C43EA0603A4F10C041F
:100390000294009CCDE900B400F0D6F803B0BDE8AB
:1003A000F08F00200146F9E70EB5C10F80EAE0703A
:1003B0000844CA07002140F233438DE80E000A4684
:1003C0000B4600F0C1F803B000BD0EB540F233415A
:1003D00002910021CDE900110A460B4600F0B4F865
:1003E00003B000BD00F0004220F00040C10DC0F39A
:1003F000160040F400007F2901DA0020704796299A
:1004000003DCC1F19601C84001E096398840002A1A
:10041000F4D04042704701F0004330B421F0004175
:1004200050EA010206D00A0DA2F56072C1F3130171
:10043000002A02DC30BC00207047440F44EAC104AB
:10044000C100E01830BC00EBC25000F037B830B546
:100450000B46014600202022012409E021FA02F582
:100460009D4205D303FA02F5491B04FA02F528441C
:10047000151EA2F10102F1DC30BD202A04DB203A76
:1004800000FA02F1002070479140C2F1200320FAE7
:1004900003F3194390407047202A06DBCB17203A1C
:1004A00041FA02F043EAE07306E041FA02F3D04079
:1004B000C2F1200291400843194670470029A8BFA5
:1004C0007047401C490008BF20F00100704710B47D
:1004D000B0FA80FC00FA0CF050EA010404BF10BC32
:1004E000704749B1CCF1200421FA04F411FA0CF15F
:1004F00018BF012121430843A3EB0C01CB1D4FEA98
:1005000000614FEA102042BF002010BC704700EB92
:10051000C35010440029A4BF10BC7047401C4900C0
:1005200008BF20F0010010BC704710B5141E73F115
:10053000000408DA401C41F1000192185B411A43A3
:1005400001D120F0010010BD2DE9F04D92469B46EF
:1005500011B1B1FA81F202E0B0FA80F22032904695
:10056000FFF78BFF04460F4640EA0A0041EA0B0101
:1005700053465A46084313D0114653EA010019D096
:10058000C8F140025046FFF7CDFD05460E465046E5
:1005900059464246FFF771FF084305D0012004E0A9
:1005A00020463946BDE8F08D0020054346EAE07656
:1005B0002C4337430A986305E40AA0EB08000022A5
:1005C000FD0A44EA47540A3002D500200146E9E713
:1005D000010510196941DDE9084500196941BDE8C7
:1005E000F04DA2E7064C074D06E0E06840F001033D
:1005F00094E8070098471034AC42F6D3FFF77AFD31
:1006000088230008A823000870B5044600688168A4
:10061000C943C9071CD1816821F00101816000F044
:100620009FFB05460FE000BF00F09AFB401B02282D
:1006300009D9A06A40F01000A062E06A40F0010011
:10064000E062012070BD20688068C043C007EBD025
:10065000002070BDF8B50026044600960068816849
:10066000C943C90728D0816841F00101816013485E
:1006700013490068B0FBF1F000E0401E0090002834
:10068000FBD100F06DFB054611E000BF00F068FBF8
:10069000401B02280BD9A06A40F01000A062E06A5B
:1006A00040F00100E06284F824600120F8BD206879
:1006B0008068C043C007E9D10020F8BD14000020C5
:1006C00040420F00FEE7704770470000F8B5002475
:1006D000009490F824202546012A12D0012280F8A7
:1006E00024204A681F23072A0DD20668776B521E02
:1006F00002EB820293409F430B6893401F43776352
:1007000019E00220F8BD06680D2A0AD2376BD21F05
:1007100002EB820293409F430B6893401F43376371
:1007200009E0F76A0D3A02EB820293409F430B689F
:1007300093401F43F7620A68072306680A2A0AD310
:10074000F7680A3A02EB420293409F438B6893405A
:100750001F43F76008E0376902EB420293409F4372
:100760008B6893401F4337610A68102A01D0112A11
:1007700020D1124B02689A4217D193681B0219D4F8
:10078000936843F4000393600968102912D10C495F
:100790000C4A0968B1FBF2F101EB8101490000E06C
:1007A000491E00910029FBD104E0816A41F020013B
:1007B0008162012480F824502046F8BD00240140C5
:1007C0001400002040420F000068C06C7047000019
:1007D0002DE9F0414FF0000704003D467ED0A06AAD
:1007E000002628B9E66284F82460204600F07EF8EE
:1007F0002046FFF709FFA16AC90600D420B1A06A0C
:1008000040F01000A06269E0A16A21F4885141F033
:100810000201A1626268E169237B0A4347EA43015E
:100820000A43A1684FF48077B94209D0012907D063
:100830005FF0000194F814C0BCF1010F02D00AE08F
:100840003946F7E7F3B1A36A43F02003A362E36AF2
:1008500043F00103E3622368D3F804C02CF4694C2D
:100860004CEA010CC3F804C021688B68DFF870C043
:1008700003EA0C0313438B60A168B9420BD0012932
:1008800009D00CE0DFF85CC0A3690CEB43330B43E9
:1008900043F40061DFE7218A0D05A5F58015216885
:1008A000CB6A23F470032B43CB62216889680E4B1B
:1008B0001940914208D1E662A16A21F0020141F09B
:1008C0000101A162BDE8F081A06A20F0020040F0C1
:1008D0001000A062E06A40F00100E0620120F1E750
:1008E000FDF7E1FF00E0FFFFFE0E1FFF00B585B042
:1008F0000021009101910291039100680E49884204
:1009000018D10E48816941F400718161816901F457
:1009100000710491816941F0080181618069694633
:1009200000F008000490012000900320019004488A
:1009300000F02CF905B000BD002401400010024079
:10094000000C01402DE9F84300260D4604460096B0
:1009500000F006FA804620688168C90508D5A06ABB
:1009600040F02000A06284F824600120BDE8F883F4
:100970004168C90503D4C06A10F4700F26D0022064
:1009800000F084FA38490968B1FBF0F72068036980
:1009900036490B424FEA61014FEAA1121BD1C368ED
:1009A0004FEA611C13EA0C0F15D103690B4221D1E8
:1009B000C06810421ED114201FE0681C06D045B349
:1009C00000F0CEF9A0EB0800A84222D82068006809
:1009D0008007F2D52AE003690B4202D1C1681142B7
:1009E00006D0026922490A4206D1C068084203D1F2
:1009F000542002E0292000E0FC204743009813E047
:100A0000681C0ED02DB100F0ABF9A0EB0800A84295
:100A100007D9A06A40F00400A06284F82460032093
:100A2000A4E70098401C0090B842E9D321686FF019
:100A300012000860A06A40F40070A062206880681C
:100A4000C0F3424007280CD1207B50B9A06A20F4A3
:100A50008070A062A06AC00403D4A06A40F00100C4
:100A6000A062002082E700001400002024499224A4
:100A70004992240070B5044690F8240001280DD056
:100A8000012084F824002046FFF7E4FD02004FF027
:100A9000000005D084F82400104670BD022070BD0F
:100AA000A16A40F20123994341F48071A1621F4D74
:100AB00023681F49AB4218D10E6816F4702F14D06A
:100AC000A66A46F48016A6620E68760505D5A66A63
:100AD00026F4005646F48056A662A66AF6040AD5A5
:100AE000E66A26F00606E66206E0A66A26F48016A6
:100AF000A6625E68E9E7E06284F824006FF0020015
:100B0000186020688368C3F34243072B05D1A842CD
:100B100008D1096811F4702F04D0816841F4801164
:100B20008160B9E7816841F4A001F9E7002801403C
:100B30000424014010B5044690F82400012807D091
:100B4000012084F824002046FFF75EFD10B107E085
:100B5000022010BDA16A21F4885141F00101A16277
:100B6000002184F8241010BD70B5044600F0F8F898
:100B70000546601C02D004480078044400F0F0F8F8
:100B8000401BA042FAD370BD080000202DE9F84FA9
:100B9000DFF89C91002409F1040A0AF1040B2346B2
:100BA0000F270BF1040EBBE00125A5402A40AA4205
:100BB00076D1DFF880C14E68A6EB0C0866452BD0D5
:100BC0000DDC032E34D005DC36B3012E19D0022EF5
:100BD0002FD11BE0112E16D0122E2AD119E0B8F514
:100BE000881F19D006DCB8F5803F15D0B8F5801FF6
:100BF0001FD111E0B8F5001F0ED0B8F5041F18D1B1
:100C00000AE0CB6815E0CB681B1D12E0CB68083307
:100C10000FE0CB680C330CE08B682BB1012B4FF04D
:100C2000080303D0456104E0042302E0056100E00D
:100C30000023FF2A01D8064601E000F104064FEA2E
:100C4000840501D9A5F12005D6F8008007FA05FC36
:100C500028EA0C0803FA05F548EA0508C6F80080FA
:100C60004D68ED005BD5344DAE6946F00106AE61CE
:100C7000AD6924F0030605F0010500952F4D06EB44
:100C8000050CDCF80850A607360F07FA06F825EA27
:100C90000805DFF8AC80404503D14FF0000810E0B4
:100CA0003DE0DFF8A080404502D14FF0010808E0A8
:100CB000DFF89480404502D14FF0020801E04FF088
:100CC000030808FA06F848EA0508CCF808804D68D9
:100CD000D9F80060ED034D4601D5164300E0964378
:100CE0002E604D68DAF80060AD03554601D5164315
:100CF00000E096432E604D68DBF80060ED025D4633
:100D000001D5164300E096432E604D68DEF8006082
:100D1000AD02754601D5164300E096432E60641C73
:100D20000A6832FA04F57FF43FAFBDE8F88F00009F
:100D300000040140000011100010024000000140BA
:100D400000080140000C014000100140806808408C
:100D500000D0012070470AB1016170470904FBE728
:100D60000148806870470000080000200248816840
:100D7000027811448160704708000020074810B5D0
:100D8000016841F010010160032000F067F80020C5
:100D900000F006F800F024F8002010BD002002400A
:100DA00070B50D4D04464FF47A712878B1FBF0F020
:100DB0000A490968B1FBF0F000F0EDFC48B9102CCD
:100DC00007D200222146501E00F028F800206C6057
:100DD00070BD012070BD000008000020140000203C
:100DE0000C4808B5816941F001018161816901F018
:100DF00001010091C16941F08051C161C06900F0F9
:100E0000805000900448416821F0E06141F0806129
:100E1000416008BD0010024000000140F0B40E4BDC
:100E20001B680C46C3F30223C3F10705042D00D948
:100E30000425191D072901D2002300E0DB1E01262D
:100E400006FA05F1491E214099409E40761E164043
:100E50003143F0BC00F078BE0CED00E0064900F034
:100E6000070208684FF6FF03184040EA0220034AD1
:100E700010430860704700000CED00E00000FA0528
:100E8000014901200862704700000E4210B529A4F4
:100E900001461DCC86B08DE81D002AA02A4C0068B2
:100EA00004900020012923D002293AD010291DD115
:100EB00061682268D20119D5C1F38342C9031DF8C4
:100EC000020009D5616804AAC1F34041515C1F4A80
:100ED000B2FBF1F1484301E01D4948436168490212
:100EE00004D440005FF00301B0FBF1F006B010BD88
:100EF000226AC2F30121012903D1920701D5C80357
:100F0000F4E7022905D1626A920702D549F640400A
:100F1000ECE70329EAD121688903E7D54FF22440A1
:100F2000E4E700F023F96168C1F38131491C49000D
:100F3000DAE7000002030405060708090A0B0C0D96
:100F40000E0F1010010200000010024000127A0083
:100F500000093D002DE9F84305460078354CC007EF
:100F600054D0E0690026C00008D4E06940F0805009
:100F7000E061E069012600F0805000902E48016891
:100F8000C90512D40168804641F480710160FFF701
:100F9000E7FE074605E000BFFFF7E2FEC01B64283E
:100FA00023D8D8F80000C005F6D5206A10F44070A8
:100FB00021D0A98801F4407181421CD0206A1F49C8
:100FC000012220F440700A6000220A602062C007FB
:100FD00011D0FFF7C5FE074641F2883808E000BF90
:100FE000FFF7BEFEC11B414502D90320BDE8F883CF
:100FF000206A8007F4D5206A696820F440700843AD
:1010000020621EB1E06920F08050E06128788007FE
:1010100005D56068A96820F44040084360602878DE
:10102000C00605D56068E96820F480000843606068
:101030000020DBE700100240007000404004424204
:101040002DE9F0470F46050061D0434E306800F0AF
:101050000700B84209D2306820F0070038433060FA
:10106000306800F00700B84251D128683B4C810736
:1010700012D5400703D5606840F4E06060602878CE
:10108000000703D5606840F4605060606068A9683C
:1010900020F0F000084360602878C00728D0686816
:1010A000012810D02168022810D0890700292EDAE3
:1010B000616821F0030101436160FFF751FE804642
:1010C00041F288390DE021688903EFE78901EDE7F6
:1010D000FFF746FEA0EB0801494502D90320BDE811
:1010E000F0876068696800F00C00B0EB810FEFD109
:1010F000306800F00700B8420BD9306820F00700D4
:1011000038433060306800F00700B84201D0012059
:10111000E5E72878400705D56068E96820F4E060D5
:10112000084360602878000706D56068296920F4C4
:10113000605040EAC100606000F028F86168084A29
:10114000C1F30311515CC8400649086006480068B5
:10115000FFF726FE0020C2E70020024000100240F8
:1011600070230008140000200C00002004480549EA
:1011700000684968044AC1F3C221515CC840704705
:1011800014000020001002408023000812A185B046
:101190000FC98DE80F0014A0144A0068049051682C
:1011A000134801F00C03042B10D0082B0ED1C1F30F
:1011B0008343C9031DF803000AD5516804AAC1F38B
:1011C0004041515C0A4A5043B0FBF1F005B0704712
:1011D00008494843FAE70000020304050607080926
:1011E0000A0B0C0D0E0F101001020000001002403F
:1011F00000127A0000093D002DE9F84F040070D07C
:101200002078C04DC00749D06868C0F3810001282C
:1012100007D06868C0F38100022809D16868C0035C
:1012200006D52868800339D560680028E7D035E006
:101230006068B0F5803F0BD010B1B0F5A02F11D091
:10124000286820F480302860286820F4802002E09C
:10125000286840F480302860606890B1FFF780FD16
:1012600006460AE0286840F480202860F0E700BFC6
:10127000FFF776FD801B642873D828688003F7D5B4
:101280000CE0FFF76DFD064605E000BFFFF768FDC7
:10129000801B6428F0D828688003F7D420789A4E01
:1012A00080074FF001094FF0000839D5686810F049
:1012B0000C0F07D06868C0F38100022809D1686864
:1012C000C00306D42868800714D52069012808D1F6
:1012D00010E02069B0B1C6F80090FFF741FD074665
:1012E00005E00AE1FFF73CFDC01B0228C4D82868CE
:1012F0008007F7D52868616920F0F80040EAC1004E
:1013000028600DE0C6F80080FFF72AFD074604E0DC
:10131000FFF726FDC01B022823D828688007F7D4D2
:10132000207800072CD57948A169D9B1C0F8009080
:10133000FFF716FD074604E0FFF712FDC01B022869
:101340000FD8686A8007F7D571484FF4FA510068E2
:10135000B0FBF1F0009000BF0098411E0091FAD25E
:101360000EE080E0C0F80080FFF7FAFC074604E0DA
:10137000FFF7F6FCC01B022875D8686A8007F7D40F
:101380002078400760D5E8690027C00008D4E869E4
:1013900040F08050E861E869012700F0805000903B
:1013A0005C480168C90513D40168834641F4807123
:1013B0000160FFF7D5FC824606E000BFFFF7D0FCD6
:1013C000A0EB0A0064284ED8DBF80000C005F5D574
:1013D000E06801280AD008B1052813D0286A20F057
:1013E00001002862286A20F0040002E0286A40F028
:1013F00001002862E06841F2883B98B1FFF7B0FC39
:1014000082460BE0286A40F004002862EEE700BF45
:10141000FFF7A6FCA0EB0A0159455AD8286A8007B5
:10142000F6D50CE0FFF79CFC824605E0FFF798FC40
:10143000A0EB0A0159454CD8286A8007F6D41FB1A1
:10144000E86920F08050E861E06988B36968C1F319
:101450008101022944D00228C6F8608004D0FFF739
:101460007FFC044638E034E0FFF77AFC074604E0EE
:10147000FFF776FCC01B02282BD828688001F7D420
:10148000206AB0F5803F05D16868A16820F400307B
:1014900008436860D4E908010843696821F47411BD
:1014A00008436860C6F86090FFF75AFC044606E0FF
:1014B00025E000BFFFF754FC001B022809D828686C
:1014C0008001F7D51BE000BFFFF74AFC001B022894
:1014D00002D90320BDE8F88F28688001F4D40EE01B
:1014E0000128F7D06868226A00F48031914204D163
:1014F000616A00F47010884201D00120EAE7002000
:10150000E8E700000010024000004242800442422E
:10151000140000200070004070B5040003D0607C0F
:10152000002610B105E0012070BD2674204600F0B1
:1015300043F802206074204600F010F9042578BBBF
:10154000204600F0F5F958BB2068416821F00701FA
:101550004160A06820B11748016821F001010160D5
:101560001448001F0168A26821F4607111430160F2
:101570006068411C04D10120FFF788FC80B1401E47
:1015800021688A6822F00F0242EA10428A602168CC
:10159000CA6860F30F02CA60204600F0E3F908B1A0
:1015A0006574C0E7E67301206073A0736074002067
:1015B00070BD0000306C004008B5006808498842E2
:1015C0000DD1FFF75DFC0748C16941F00061C161C1
:1015D000C069054900F0006000900120086008BD66
:1015E00000280040001002403C0442422DE9F04136
:1015F0000D4604003BD0C5B3207C01283AD04FF003
:10160000010884F8108002206074E87872B300F05A
:1016100086F9E073687800F082F96073A87800F0CA
:101620007EF9A073C2B2617BE07B00F0CDF920733C
:101630002870204600F0B8F94FF46161B0FBF1F179
:10164000002518292DD91822B1FBF2F1A1EB0111C7
:1016500001EB4101C1EB011100EBC11631462046FF
:1016600000F0F1F90427C8B90BE000E004E0012024
:10167000BDE8F0810220FBE7E07368786073A8782A
:10168000CFE7204600F089F9411C0AD0B04208D2C9
:1016900006490144204600F0C2F910B16774257470
:1016A000E5E784F8118025740020E1E7805101000E
:1016B0002DE9F0410D46040024D01DB3207C012803
:1016C00023D04FF0010884F810800220607428783D
:1016D000EAB100F024F94FF4616100FB01F668788B
:1016E00000F01DF9C0EB001006EB8006A87800F0B2
:1016F00016F935182946204600F0A5F900260427DA
:1017000010BB0FE00120BDE8F0810220FBE74FF4A1
:10171000616148436978C1EB011100EB8100A97850
:101720004518E7E72068416821F00501416020463F
:1017300000F033F9411C0AD0A84208D206490144FE
:10174000204600F06CF910B167742674DAE784F86B
:10175000118026740020D6E78051010070B5040086
:101760000AD02068416821F008014160FFF7F8FACB
:1017700005464FF47A7608E0012070BDFFF7F0FAD5
:10178000401BB04201D9032070BD206840680007AB
:10179000F4D5002070BD10B5401EB0F1807F01D39C
:1017A000012010BD4FF0E02460610F21601700F0B0
:1017B000CBF90020A06107202061002010BDFEE7CA
:1017C0003EB5002411480094019402940E498460AF
:1017D000016004730475012505614FF460214460C4
:1017E000C161FEF7F5FF08B1FEF76EFF0820CDE9F5
:1017F0000005694602940548FEF768FF002801D0FD
:10180000FEF762FF3EBD00000024014018000020EA
:101810002DE9F04385B000242148009401940294FE
:101820000394816941F004018161816901F004013F
:101830000491816941F0080181618069DFF8648069
:1018400000F0080040F6FF7504900022294640464B
:10185000FFF781FADFF8509040F206470022394640
:101860004846FFF778FA0126CDE900560225694679
:101870004046CDE90245FFF789F9CDE90076694692
:101880004846CDE90245FFF781F94FF4F0408DE875
:10189000310069464846FFF779F905B0BDE8F083A5
:1018A0000010024000080140000C01401CB500245B
:1018B00018480194164900940160611E41604FF47C
:1018C00080718160FFF728FE08B1FEF7FDFE8DF8FC
:1018D00004408DF805408DF80640002201A90D480E
:1018E000FFF7E6FE08B1FEF7EFFE01208DF80000DD
:1018F0008DF801008DF802008DF803400022694642
:101900000448FFF773FE002801D0FEF7DDFE1CBD82
:101910000028004048000020FEE77047704701099A
:1019200001EB810100F00F0000EB4100C0B27047F5
:1019300070B50446FFF714FA05464FF47A7606E0D0
:10194000FFF70EFA401BB04201D9032070BD20689A
:1019500040688006F4D52068416841F0100141607C
:10196000002070BD70B504460068416821F0100188
:101970004160FFF7F5F905464FF47A7607E000BFBE
:10198000FFF7EEF9401BB04201D9032070BD20687B
:1019900040688006F4D5002070BD0168086A496A75
:1019A00089B241EA00407047006881698AB2C16922
:1019B0008BB2816989B28A4203D0C06961F31F404A
:1019C000704743EA02407047F0B56424C1EBC1039D
:1019D0000927A500072603EB01130329B3FBF7F141
:1019E00000F5FA60114401440AD2401EB0FBF4F243
:1019F00001EB9001B0FBF5F0891A0844001D08E0E6
:101A0000B0FBF4F201EB9001B0FBF5F0891A084449
:101A1000801CB0FBF6F106FB1100C0B2F0BD70B542
:101A20000D4606460024FFF783FF48B93168280CAD
:101A300008623168A8B248623046FFF793FF00B1F0
:101A40000124204670BD70B50D4606460024FFF700
:101A50006FFF48B93168280C88613168A8B2C86145
:101A60003046FFF77FFF00B10124204670BD70476C
:101A7000FFF77CB910B594B028216846FEF769FBE2
:101A800014210AA8FEF765FB00240F940A20009099
:101A9000012010941194CDE906041021CDE9040130
:101AA00012946846FFF7A8FB0F20CDE90A040C94B6
:101AB0000D9400210AA80E94FFF7C2FA03200F909C
:101AC0004FF40070CDE910040FA8FFF743FA14B0EB
:101AD00010BD00000D48016841F00101016041683E
:101AE0000B4A1140416001680A4A114001600168D7
:101AF00021F480210160416821F4FE0141604FF42E
:101B00001F0181600449C003086070470010024053
:101B10000000FFF8FFFFF6FE08ED00E0FEE7000022
:101B20000FB4084B10B504A902AA039800F02CF8D2
:101B3000044602A9002000F0C8F9204610BC5DF858
:101B400014FB0000CB1E00080907090E002804DB67
:101B500000F1E02080F80014704700F00F0000F161
:101B6000E02080F8141D704702E008C8121F08C169
:101B7000002AFAD170477047002001E001C1121F0E
:101B8000002AFBD1704700002DE9FF4F8BB088463B
:101B90000546002606E025280BD0DDE90D1290470A
:101BA0006D1C761C28780028F5D10FB03046BDE8B2
:101BB000F08F0024A146A2460122AE4900E0044372
:101BC00015F8013F203B02FA03F00842F7D12878CC
:101BD0002A2810D06FF02F022878A0F130010929AF
:101BE00015D809EB890102EB410144F0020400EB36
:101BF00001096D1CF0E758F8041B5FEA010903D5E1
:101C000044F40054C9F1000944F002046D1C287822
:101C10002E2817D115F8010F44F004042A280ED0FD
:101C20006FF02F022878A0F1300109290AD80AEBB9
:101C30008A0102EB410100EB010A6D1CF2E758F842
:101C400004AB6D1C28786C280FD006DC4C2817D00C
:101C500068280DD06A2814D104E0742810D07A289E
:101C60000FD10DE044F400140AE044F4801401E0C4
:101C700044F440146978814202D104F580146D1C4B
:101C80006D1C2878692865D006DC00288DD0632873
:101C900027D0642806D15DE06E2808D073282AD0AA
:101CA000752877D0DDE90D129047761CE0E0C4F38B
:101CB0000250022809D003280DD0D8F800100428BB
:101CC0000DD00E6008F10408D2E0D8F80010F21729
:101CD000C1E90062F6E7D8F800100E80F2E70E7056
:101CE000F0E718F8041B8DF8001000208DF80100B3
:101CF000EB46012003E058F804BB4FF0FF306107CA
:101D00004FF0000701D40AE07F1C57450DDA8742E7
:101D1000FADB1BF807100029F6D106E07F1C87428A
:101D2000FCDB1BF807100029F8D1DDE90D23A9EB36
:101D300007008146214600F0B1F83044C61904E09E
:101D4000DDE90D121BF8010B90477F1EF8D22146EA
:101D5000484688E058F8040BC4F302514FF00A0BD0
:101D6000032900D100B2042900D140B2002802DAD0
:101D700040422D2102E0210505D52B218DF82410AC
:101D8000012104E006E0E10710D02021F6E708AFCA
:101D9000089113E058F8040BC4F302514FF00A0BFA
:101DA000032900D180B2042900D1C0B20021EEE79E
:101DB0005946FEF74CFB303107F8011D0028F7D1DA
:101DC000ADEB070000F1200B600702D524F480344E
:101DD00001E04FF0010ADA4502DDAAEB0B0000E05A
:101DE0000020824600EB0B0108980144A9EB01009A
:101DF0000A90E00306D4DDE90D2321460A9800F09D
:101E00004DF806444FF0000908E009A911F809004F
:101E1000DDE90D12904709F10109761C0899894501
:101E2000F3DBE0030CD5DDE90D2321460A9800F031
:101E300035F8064404E0DDE90D1230209047761CA9
:101E4000BAF10001AAF1010AF5DC05E0DDE90D12A5
:101E500017F8010B9047761CBBF10001ABF1010BA9
:101E6000F4DC0A982146DDE90D2300F005F806446C
:101E70006D1C97E6092801002DE9F0410446002574
:101E80001E461746880404D405E039462020B04792
:101E90006D1C641EF9D52846BDE8F0812DE9F0419E
:101EA000044600251E469046C80301D5302700E0B1
:101EB0002027880404D505E041463846B0476D1C0C
:101EC000641EF9D52846BDE8F0810A68531C0B60F2
:101ED000107070472DE9FF474FF4806501AA00207C
:101EE00001240226009582E85100DFF8448069460B
:101EF0004046FEF74BFE0E4FE002103738600120DF
:101F0000FEF732FE29464046FEF720FF8146E006F6
:101F100038600120FEF728FECDE90054CDE90246E5
:101F200069464046FEF732FE04B04846BDE8F087F9
:101F30000008014010B5094C4FF08060206001207E
:101F4000FEF712FEE01420600120FEF70DFEE00512
:101F50002060BDE810400120FEF706BE10080140D9
:101F600010B5094C4FF4806020600120FEF7FCFDA5
:101F7000E01420600120FEF7F7FDE0052060BDE8D9
:101F800010400120FEF7F0BD10080140102910DAC2
:101F900048B1012809D0022809D0032809D1D43139
:101FA000C8B200F015B88031FAE7C031F8E79431D3
:101FB000F6E7704770B506460024FEF7D5F80546EB
:101FC00003E0305D00F028F8641CAC42F9DD70BD20
:101FD00070B5104D044600224FF400712846FEF7FC
:101FE000BAFE0C49FF2014310860081F04608415F4
:101FF000012221462846FEF7AEFE0120FEF7B4FD81
:10200000002221462846FEF7A6FEBDE870400120CA
:10201000FEF7AABD0008014070B5104D044601222C
:1020200051022846FEF797FE0C49FF201431086044
:10203000081F04608415012221462846FEF78BFE06
:102040000120FEF791FD002221462846FEF783FE7F
:10205000BDE870400120FEF787BD00000008014088
:1020600010B53820FFF7B4FF0E20FFF7B1FF0620B0
:10207000FFF7AEFF0120FFF7ABFFBDE81040642083
:10208000FEF772BD2DE9FF5F00244FF4806701AABF
:10209000204601264FF00209009782E84102DFF84E
:1020A000648069464046FEF771FD164F00254FF4E7
:1020B000006A10374FF0006BC7F800A00120FEF750
:1020C00053FD60064FEA10684FF480610D48FEF73B
:1020D0003DFE40EA0804C7F800B00120FEF744FDC9
:1020E0006D1C082DE8DB4FF48060CDE90006CDE9DA
:1020F000026969460348FEF749FD04B060B2BDE8D5
:10210000F09F00000008014070B500F003F9FFF7F0
:1021100011FFFFF70FFFFFF70DFFFFF70BFFFFF7B3
:1021200009FFFFF707FFFFF71BFFFFF719FFFFF797
:10213000D1FE4FF4B470FEF717FDFFF7A3FF04467E
:10214000FFF7F8FEFFF79EFFC5B2FFF7F3FEFFF7BC
:1021500099FFFFF705FF04F03F0045EA0020FEF776
:1021600034F9074A074BFEF7ADF8074A074BFEF76D
:1021700002F8FEF750F9BDE87040FEF733B90000F1
:102180007B14AE47E17A843FCDCCCCCCCCCC43C0E1
:1021900070B500F0BFF8FFF7CDFEFFF7CBFEFFF7FD
:1021A000C9FEFFF7C7FEFFF7C5FEFFF7D9FEFFF731
:1021B000C1FEFFF7D5FEFFF78DFE6420FEF7D4FCCD
:1021C000FFF760FF0446FFF7B5FEFFF75BFFC5B200
:1021D000FFF7B0FEFFF756FFFFF7C2FE04F00F0057
:1021E00045EA002404FB04F0FEF7DEF80D4A0E4B2E
:1021F000FEF768F806460D462046FEF7E6F80B4A5D
:102200000B4BFEF75FF80B4A0B4BFDF7B4FF324662
:102210002B46FDF7B0FFFEF7FEF8BDE87040FEF775
:10222000E1B800007E2293AFAB99BABE27C286A761
:1022300057CAA23F569FABADD85F00C098B0FEF71B
:102240009DFDFFF717FCFFF7E3FAFFF72FFBFFF702
:10225000B7FAFFF705FF23481D21002281700821EE
:102260004170062101701421C17001461E48FFF71C
:10227000BDF900BFFFF78CFF02461CA16846FFF7BF
:102280004FFC01210846FFF781FE6846FFF792FEEA
:10229000FFF73AFF024618A108A8FFF741FC012109
:1022A0000220FFF773FE08A8FFF784FE1548FEF72B
:1022B000E1FB64211348FEF745FB1248FEF784FA60
:1022C00084B21048FEF736FC22460FA110A8FFF793
:1022D00027FC01210320FFF759FE10A8FFF76AFE33
:1022E000C8E700000300002048000020556D692069
:1022F0003D2025640000000054656D70203D2025C0
:10230000640000001800002041443D202530346462
:10231000000000002DE9F041144C4FF000652560ED
:10232000261526600120FEF71FFCE7142760012018
:10233000FEF71AFC4FF08068C4F800800120FEF719
:1023400013FC25600120FEF70FFC27600120FEF73B
:102350000BFC26600120FEF707FC25600120FEF73C
:1023600003FCC4F80080BDE8F081000010080140C3
:102370000000000000000000010203040607080935
:102380000000000001020304A82300080000002050
:1023900018000000681B0008C02300081800002077
:1023A00048040000781B0008000000000000000046
:1023B0000100000010000000000000000024F400F4
:04000005080000ED02
:00000001FF
